:100000000C9448000C9465000C9465000C946500F9
:100010000C9465000C9465000C9465000C946500CC
:100020000C9465000C9465000C9465000C946500BC
:100030000C9465000C9465000C9465000C946500AC
:100040000C9465000C9465000C9442020C946500BD
:100050000C9437010C9465000C9465000C946500B9
:100060000C9465000C946500650161015D01590106
:1000700055016901700177017E018501ED01E601FD
:10008000DF01D801D101BE01C101C501C901CD0106
:1000900011241FBECFEFD8E0DEBFCDBF11E0A0E03E
:1000A000B1E0EEE1FCE002C005900D92A033B10793
:1000B000D9F721E0A0E3B1E001C01D92A135B2075C
:1000C000E1F70E94A2020C940D060C94000098B176
:1000D000907F98B998B18F70982B98B9459A85E020
:1000E0008A95F1F70000459887EC90E00197F1F7C9
:1000F00000C000000895CF93C82F611102C044983A
:1001000001C0449A8C2F82958F700E9467008C2FBB
:100110000E946700CF9108952FEF80E792E0215071
:1001200080409040E1F700C0000088B1807C88B931
:100130002FEF81EE94E0215080409040E1F700C025
:10014000000083E00E9467008FE496E40197F1F7D6
:1001500000C0000083E00E9467008FE496E40197EE
:10016000F1F700C0000083E00E9467008FE193E098
:100170000197F1F700C0000082E00E9467008FE95C
:100180009FE00197F1F700C0000060E088E20E9464
:100190007B0060E08CE00E947B008FE99FE001978C
:1001A000F1F700C0000060E081E00E947B008FE377
:1001B0009FE10197F1F700C0000060E086E00E9437
:1001C0007B008FE99FE00197F1F700C0000060E03D
:1001D00082E00E947B0060E080E80E947B008FE369
:1001E0009FE10197F1F700C00000089560E081E011
:1001F0000E947B008FE697E10197F1F700C00000B5
:1002000008950F931F93CF93FC018081882361F0A1
:100210008F01C0E061E00E947B00CF5FF801EC0F2E
:10022000F11D80818111F6CFCF911F910F9108951B
:10023000613059F028F0623071F0633091F0089528
:1002400060E080680E947B000895805C60E08068C8
:100250000E947B0008958C5E60E080680E947B00B5
:1002600008958C5A60E080680E947B0008951F9278
:100270000F920FB60F9211240F900FBE0F901F9088
:100280001895813019F45C985B9808955C9A5B9A94
:100290000895E0913001F09131013596EA30F10591
:1002A000D0F5EC5CFF4F0C941D038FEF88BD87BD2C
:1002B00032C08CEC88BD87BD2EC089E988BD87BD62
:1002C0002AC086E688BD87BD26C083E388BD87BD7A
:1002D00022C081E00E94410183E388BD87BD1BC02D
:1002E00081E00E94410186E688BD87BD14C081E09F
:1002F0000E94410189E988BD87BD0DC081E00E944F
:1003000041018CEC88BD87BD06C081E00E9441019F
:100310008FEF88BD87BD809130019091310185308C
:1003200091052CF4019690933101809330018091D6
:1003300031018F93809130018F9380E091E09F9302
:100340008F9383E391E09F938F930E94230383E332
:1003500091E00E9401010F900F900F900F900F906D
:100360000F900895E0913001F09131013496EA3018
:10037000F105C0F5E25CFF4F0C941D0318BC17BCDF
:1003800031C083E388BD87BD2DC086E688BD87BDAB
:1003900029C089E988BD87BD25C08CEC88BD87BD93
:1003A00021C080E00E9441018CEC88BD87BD1AC04D
:1003B00080E00E94410189E988BD87BD13C080E0CB
:1003C0000E94410186E688BD87BD0CC080E00E9486
:1003D000410183E388BD87BD05C080E00E944101E3
:1003E00018BC17BC80913001909131018C3F2FEFE8
:1003F00092072CF001979093310180933001809106
:1004000031018F93809130018F9380E091E09F9331
:100410008F9383E391E09F938F930E94230383E361
:1004200091E00E9401010F900F900F900F900F909C
:100430000F9008952091300130913101232B09F163
:10044000811110C087B5835387BD2FEF89E698E1EE
:10045000215080409040E1F700C0000087B58D5CDE
:1004600087BD089588B5835388BD2FEF89E698E14D
:10047000215080409040E1F700C0000088B58D5CBD
:1004800088BD08951F920F920FB60F9211242F93DB
:100490003F934F935F936F937F938F939F93AF930C
:1004A000BF93EF93FF938091C60080933201823314
:1004B000B1F018F4813331F034C08333D9F0843390
:1004C00031F12FC060E080E00E94180183E091E0EC
:1004D0000E94010180E090E00E941A0222C060E0C8
:1004E00080E00E9418018EE091E00E9401010E94CC
:1004F000B20117C060E080E00E94180189E191E03C
:100500000E94010181E090E00E941A020AC060E0AE
:1005100080E00E94180184E291E00E9401010E94A3
:100520004901FF91EF91BF91AF919F918F917F9181
:100530006F915F914F913F912F910F900FBE0F9050
:100540001F9018958FE387B914B888E78AB918B84F
:1005500015B81BB883EA84BD81E085BD16BC18BC04
:1005600017BC78940E948C000E94F60041E060E085
:1005700080E895E20E94BD02FFCF811521EE92072F
:10058000C9F024F48115924CD9F020C0803825E2BE
:10059000920721F081159B4439F018C01092C500D4
:1005A00087E68093C40017C01092C50083E3809350
:1005B000C40011C01092C50080E18093C4000BC03C
:1005C0001092C50088E08093C40005C01092C50059
:1005D00087E68093C40088ED8093C10086E0809315
:1005E000C200623049F4E2ECF0E0808180628083F6
:1005F00080818061808313C0613049F4E2ECF0E0D7
:1006000080818062808380818F7E808308C0E2EC5D
:10061000F0E080818F7D808380818F7E8083423077
:1006200031F4E2ECF0E08081886080830895E2ECB0
:10063000F0E08081877F80830895EE0FFF1F059093
:10064000F491E02D0994AEE0B0E0E9E2F3E00C941F
:10065000E4050D891E8986E08C831A8309838FEF58
:100660009FE79E838D83AE01475E5F4F6F89788DD4
:10067000CE0101960E944503EF81F885E00FF11F3E
:1006800010822E96E4E00C940006ABE0B0E0EBE4C0
:10069000F3E00C94D6056C017B018A01FC01178202
:1006A0001682838181FFCCC1CE0101963C01F60107
:1006B0009381F70193FD859193FF81917F018823B9
:1006C00009F4BAC1853239F493FD859193FF819184
:1006D0007F01853229F4B60190E00E943C05E7CF06
:1006E000912C212C312CFFE1F315D8F08B3279F0CD
:1006F00038F4803279F08332A1F4232D20611DC0BB
:100700008D3261F0803369F4232D216016C0832D72
:100710008260382EE32DE4603E2E2AC0F32DF8606F
:100720001DC037FC2DC020ED280F2A3040F08E323E
:10073000B9F436FC81C1232D2064322E19C036FE57
:1007400006C08AE0989E200D1124922E11C0EAE086
:100750002E9E200D1124222EF32DF0623F2E08C074
:100760008C3621F4832D8068382E02C0883641F4FF
:10077000F70193FD859193FF81917F018111B3CFA3
:10078000982F9F7D9554933028F40C5F1F4F9FE363
:1007900099830DC0833631F0833771F0833509F0CA
:1007A00059C021C0F801808189830E5F1F4F8824C2
:1007B0008394912C530113C02801F2E04F0E511C79
:1007C000F801A080B18036FE03C0692D70E002C040
:1007D0006FEF7FEFC5010E9431054C018201F32DBF
:1007E000FF773F2E16C0280122E0420E511CF8016F
:1007F000A080B18036FE03C0692D70E002C06FEFAB
:100800007FEFC5010E9426054C01F32DF0683F2EB5
:10081000820133FC1BC0822D90E088169906B0F44B
:10082000B60180E290E00E943C052A94F4CFF501E5
:1008300037FC859137FE81915F01B60190E00E94FF
:100840003C0521102A9421E0821A91088114910418
:1008500071F7E8C0843611F0893641F5F80137FEAA
:1008600007C060817181828193810C5F1F4F08C036
:1008700060817181072E000C880B990B0E5F1F4F52
:10088000F32DFF763F2E97FF09C0909580957095C8
:1008900061957F4F8F4F9F4FF0683F2E2AE030E0E9
:1008A000A3010E947805882E861845C0853731F44B
:1008B000232D2F7EB22E2AE030E025C0932D997F84
:1008C000B92E8F36C1F018F4883579F0B5C080376D
:1008D00019F0883721F0B0C0E92FE061BE2EB4FED8
:1008E0000DC0FB2DF460BF2E09C034FE0AC0292FB5
:1008F0002660B22E06C028E030E005C020E130E0DE
:1009000002C020E132E0F801B7FE07C060817181CA
:10091000828193810C5F1F4F06C06081718180E0EE
:1009200090E00E5F1F4FA3010E947805882E861865
:10093000FB2DFF773F2E36FE0DC0232D2E7FA22EDE
:10094000891458F434FE0BC032FC09C0832D8E7E0E
:10095000A82E05C0B82CA32C03C0B82C01C0B92CFC
:10096000A4FE0FC0FE01E80DF11D8081803321F44B
:100970009A2D997EA92E09C0A2FE06C0B394B39405
:1009800004C08A2D867809F0B394A3FC11C0A0FEA0
:1009900006C0B21488F4280C922C9B180EC0B21416
:1009A00060F4B60180E290E00E943C05B394F7CF7A
:1009B000B21418F42B1802C0982C212CA4FE10C0DD
:1009C000B60180E390E00E943C05A2FE17C0A1FCA6
:1009D00003C088E790E002C088E590E0B6010CC053
:1009E0008A2D867859F0A1FE02C08BE201C080E218
:1009F000A7FC8DE2B60190E00E943C05891438F412
:100A0000B60180E390E00E943C059A94F7CF8A9467
:100A1000F301E80DF11D8081B60190E00E943C05D4
:100A20008110F5CF222009F442CEB60180E290E099
:100A30000E943C052A94F6CFF6018681978102C078
:100A40008FEF9FEF2B96E2E10C94F205FC010590ED
:100A5000615070400110D8F7809590958E0F9F1FC0
:100A60000895FC016150704001900110D8F7809505
:100A700090958E0F9F1F08950F931F93CF93DF9331
:100A8000FB01238121FD03C08FEF9FEF2CC022FFCC
:100A900016C046815781248135814217530744F49B
:100AA000A081B1819D012F5F3F4F318320838C93C3
:100AB000268137812F5F3F4F3783268314C08B01F8
:100AC000EC01FB010084F185E02D0995892BE1F60D
:100AD000D80116968D919C911797019617969C9325
:100AE0008E931697CE01DF91CF911F910F910895AC
:100AF000FA01AA27283051F1203181F1E8946F934F
:100B00006E7F6E5F7F4F8F4F9F4FAF4FB1E03ED0F4
:100B1000B4E03CD0670F781F891F9A1FA11D680F92
:100B2000791F8A1F911DA11D6A0F711D811D911DC5
:100B3000A11D20D009F468943F912AE0269F11243A
:100B40003019305D3193DEF6CF010895462F47709E
:100B5000405D4193B3E00FD0C9F7F6CF462F4F70F9
:100B6000405D4A3318F0495D31FD4052419302D057
:100B7000A9F7EACFB4E0A6959795879577956795FD
:100B8000BA95C9F700976105710508959B01AC01FD
:100B90000A2E06945795479537952795BA95C9F724
:100BA000620F731F841F951FA01D08952F923F92FF
:100BB0004F925F926F927F928F929F92AF92BF926D
:100BC000CF92DF92EF92FF920F931F93CF93DF9319
:100BD000CDB7DEB7CA1BDB0B0FB6F894DEBF0FBE76
:100BE000CDBF09942A88398848885F846E847D84C3
:100BF0008C849B84AA84B984C884DF80EE80FD80C5
:100C00000C811B81AA81B981CE0FD11D0FB6F8943A
:0E0C1000DEBF0FBECDBFED010895F894FFCFFB
:100C1E002564005475726E204C6566742000426126
:100C2E00636B776172642020005475726E20526976
:100C3E0067687400466F727761726420202000002E
:00000001FF
